:020000040000fa
:080000000002040000000000f2
:020000040000fa
:0400080006030000eb
:020000040000fa
:04000c0048030000a5
:020000040000fa
:040010008803000061
:020000040000fa
:0400140026030000bf
:020000040000fa
:040018006803000079
:020000040000fa
:04001c00d804000004
:020000040000fa
:04002000a803000031
:020000040000fa
:04002400d8040000fc
:020000040000fa
:04002800d8040000f8
:020000040000fa
:04002c00d8040000f4
:020000040000fa
:04003000d8040000f0
:020000040000fa
:0400340006040000be
:020000040000fa
:04003800d8040000e8
:020000040000fa
:04003c00d8040000e4
:020000040000fa
:04004000d8040000e0
:020000040000fa
:04004400d8040000dc
:020000040000fa
:04004800d8040000d8
:020000040000fa
:04004c00d8040000d4
:020000040000fa
:04005000d8040000d0
:020000040000fa
:04005400d8040000cc
:020000040000fa
:04005800d8040000c8
:020000040000fa
:04005c00d8040000c4
:020000040000fa
:04006000d8040000c0
:020000040000fa
:04006400d8040000bc
:020000040000fa
:04006800d8040000b8
:020000040000fa
:04006c00d8040000b4
:020000040000fa
:04007000d8040000b0
:020000040000fa
:04007400d8040000ac
:020000040000fa
:04007800d8040000a8
:020000040000fa
:04007c00d8040000a4
:020000040000fa
:04008000d8040000a0
:020000040000fa
:04008400d80400009c
:020000040000fa
:04008800d804000098
:020000040000fa
:04008c00d804000094
:020000040000fa
:04009000d804000090
:020000040000fa
:04009400d80400008c
:020000040000fa
:04009800d804000088
:020000040000fa
:04009c00d804000084
:020000040000fa
:0400a000d804000080
:020000040000fa
:0400a400d80400007c
:020000040000fa
:0400a800d804000078
:020000040000fa
:0400ac00d804000074
:020000040000fa
:0400b000d804000070
:020000040000fa
:0400b400d80400006c
:020000040000fa
:0400b800d804000068
:020000040000fa
:0400bc00d804000064
:020000040000fa
:0400c000d804000060
:020000040000fa
:0400c400d80400005c
:020000040000fa
:0400c800d804000058
:020000040000fa
:0400cc00d804000054
:020000040000fa
:0400d000d804000050
:020000040000fa
:0400d400d80400004c
:020000040000fa
:0400d800d804000048
:020000040000fa
:0400dc00d804000044
:020000040000fa
:0400e000d804000040
:020000040000fa
:0400e400d80400003c
:020000040000fa
:0400e800d804000038
:020000040000fa
:0400ec00d804000034
:020000040000fa
:0400f000d804000030
:020000040000fa
:0400f400d80400002c
:020000040000fa
:0400f800d804000028
:020000040000fa
:0400fc00d804000024
:020000040000fa
:04010000d80400001f
:020000040000fa
:04010400d80400001b
:020000040000fa
:04010800d804000017
:020000040000fa
:04010c00d804000013
:020000040000fa
:04011000d80400000f
:020000040000fa
:04011400d80400000b
:020000040000fa
:04011800d804000007
:020000040000fa
:04011c00d804000003
:020000040000fa
:04012000d8040000ff
:020000040000fa
:04012400d8040000fb
:020000040000fa
:04012800d8040000f7
:020000040000fa
:04012c00d8040000f3
:020000040000fa
:04013000d8040000ef
:020000040000fa
:04013400d8040000eb
:020000040000fa
:04013800d8040000e7
:020000040000fa
:04013c00d8040000e3
:020000040000fa
:04014000d8040000df
:020000040000fa
:04014400d8040000db
:020000040000fa
:04014800d8040000d7
:020000040000fa
:04014c00d8040000d3
:020000040000fa
:04015000d8040000cf
:020000040000fa
:04015400d8040000cb
:020000040000fa
:04015800d8040000c7
:020000040000fa
:04015c00d8040000c3
:020000040000fa
:04016000d8040000bf
:020000040000fa
:04016400d8040000bb
:020000040000fa
:04016800d8040000b7
:020000040000fa
:04016c00d8040000b3
:020000040000fa
:04017000d8040000af
:020000040000fa
:04017400d8040000ab
:020000040000fa
:04017800d8040000a7
:020000040000fa
:04017c00d8040000a3
:020000040000fa
:04018000d80400009f
:020000040000fa
:04018400d80400009b
:020000040000fa
:04018800d804000097
:020000040000fa
:04018c00d804000093
:020000040000fa
:04019000d80400008f
:020000040000fa
:04019400d80400008b
:020000040000fa
:04019800d804000087
:020000040000fa
:04019c00d804000083
:020000040000fa
:0401a000d80400007f
:020000040000fa
:0401a400d80400007b
:020000040000fa
:0401a800d804000077
:020000040000fa
:0401ac00d804000073
:020000040000fa
:0401b000d80400006f
:020000040000fa
:0401b400d80400006b
:020000040000fa
:0401b800d804000067
:020000040000fa
:0401bc00d804000063
:020000040000fa
:0401c000d80400005f
:020000040000fa
:0401c400d80400005b
:020000040000fa
:0401c800d804000057
:020000040000fa
:0401cc00d804000053
:020000040000fa
:0401d000d80400004f
:020000040000fa
:0401d400d80400004b
:020000040000fa
:0401d800d804000047
:020000040000fa
:0401dc00d804000043
:020000040000fa
:0401e00050040000c7
:020000040000fa
:0401e400d80400003b
:020000040000fa
:0401e800d804000037
:020000040000fa
:0401ec00d804000033
:020000040000fa
:0401f000d80400002f
:020000040000fa
:0401f400d80400002b
:020000040000fa
:0401f800d804000027
:020000040000fa
:0401fc00d804000023
:020000040000fa
:04020000d80400001e
:020000040000fa
:04020400d80400001a
:020000040000fa
:04020800d804000016
:020000040000fa
:04020c00d804000012
:020000040000fa
:04021000d80400000e
:020000040000fa
:04021400d80400000a
:020000040000fa
:04021800d804000006
:020000040000fa
:04021c00d804000002
:020000040000fa
:04022000d8040000fe
:020000040000fa
:04022400d8040000fa
:020000040000fa
:04022800d8040000f6
:020000040000fa
:04022c00d8040000f2
:020000040000fa
:04023000d8040000ee
:020000040000fa
:04023400d8040000ea
:020000040000fa
:04023800d8040000e6
:020000040000fa
:04023c00d8040000e2
:020000040000fa
:04024000d8040000de
:020000040000fa
:04024400d8040000da
:020000040000fa
:04024800d8040000d6
:020000040000fa
:04024c00d8040000d2
:020000040000fa
:04025000d8040000ce
:020000040000fa
:04025400d8040000ca
:020000040000fa
:04025800d8040000c6
:020000040000fa
:04025c00d8040000c2
:020000040000fa
:04026000d8040000be
:020000040000fa
:04026400d8040000ba
:020000040000fa
:04026800d8040000b6
:020000040000fa
:04026c00d8040000b2
:020000040000fa
:04027000d8040000ae
:020000040000fa
:04027400d8040000aa
:020000040000fa
:04027800d8040000a6
:020000040000fa
:04027c00d8040000a2
:020000040000fa
:04028000d80400009e
:020000040000fa
:04028400d80400009a
:020000040000fa
:04028800d804000096
:020000040000fa
:04028c00d804000092
:020000040000fa
:04029000d80400008e
:020000040000fa
:04029400d80400008a
:020000040000fa
:04029800d804000086
:020000040000fa
:04029c00d804000082
:020000040000fa
:0402a000d80400007e
:020000040000fa
:0402a400d80400007a
:020000040000fa
:0402a800d804000076
:020000040000fa
:0402ac00d804000072
:020000040000fa
:0402b000d80400006e
:020000040000fa
:0402b400d80400006a
:020000040000fa
:0402b800d804000066
:020000040000fa
:0402bc00d804000062
:020000040000fa
:0402c000d80400005e
:020000040000fa
:0402c400d80400005a
:020000040000fa
:0402c800d804000056
:020000040000fa
:0402cc00d804000052
:020000040000fa
:0402d000d80400004e
:020000040000fa
:0402d400d80400004a
:020000040000fa
:0402d800d804000046
:020000040000fa
:0402dc00d804000042
:020000040000fa
:0402e000d80400003e
:020000040000fa
:0402e400d80400003a
:020000040000fa
:0402e800d804000036
:020000040000fa
:0402ec00d804000032
:020000040000fa
:0402f000d80400002e
:020000040000fa
:0402f400d80400002a
:020000040000fa
:0402f800d804000026
:020000040000fa
:0402fc00d804000022
:020000040000fa
:04030000d80400001d
:020000040000fa
:04030400d804000019
:020000040000fa
:04030800d804000015
:020000040000fa
:04030c00d804000011
:020000040000fa
:04031000d80400000d
:020000040000fa
:04031400d804000009
:020000040000fa
:04031800d804000005
:020000040000fa
:04031c00d804000001
:020000040000fa
:04032000d8040000fd
:020000040000fa
:10040000cf1221004efd22000e01880000000000e6
:10041000000020000000e000020032000001200087
:100420002002880014000700630107000000e000bc
:1004300003003a00e00b2100010020000200370019
:100440000000200001002000810f70000100320038
:100450000f000700000020000000e0000200320052
:100460000000020000000000a811020000000000cf
:100470000040da000000fe00200020000000e00044
:1004800002003200100020009001880000000600e9
:10049000a1028800800478000000eb001f003700f4
:1004a000e284440054a0b4009905ba00e2844400f8
:1004b00054a0b4009906ba00e284440054a0b400e9
:1004c0000006eb00476fde00fd07b200ae018800ba
:1004d000636ce10003003a000ad801000000eb0061
:1004e0000e003700606ce10008003a00004deb00a0
:1004f0000a05e800020039003420ec000af0a000f0
:100500008b05e900f9ff3e00040037006168e10057
:10051000010032000086eb000b00070019c7ba008b
:100520000e04e0001905ba0003003a000a00e000da
:10053000dbff3a0000000600fe07b200ae028800b2
:100540008a047800f5ff37000cd0a300e20f4d00bd
:100550001c003b0089027800354dba000a05e8000e
:10056000020039003420ec000af0a0008b05e900fd
:100570000f003200254dba000a05e80002003900dc
:100580003420ec000af0a0008b05e90008003200de
:100590000c00e0000600320015cdba000a05e800a4
:1005a000020039003420ec000af0a0008b05e900bd
:1005b0008984e80054a0b4000b00e000e2ff3a0098
:1005c000000006009902ba00055d78008b05e9007d
:1005d000f7ff3200c82ade00055d78008b05e900d0
:1005e000f3ff32000c00e000f1ff320019ddba0029
:1005f000eeff37004c0f0400000000002a0c04003e
:1006000000000000580c0400000000003600f80054
:10061000809fbe00829fbe00849fbe00869fbe005a
:100620000000fa00c028a9000000eb00cd07070079
:100630000080fa004f03be004f02be004f01be0013
:100640004f00be003600f900004006003600f800fa
:10065000809fbe00829fbe00849fbe00869fbe001a
:100660000000fa00c4070700c048a90010002000dd
:10067000bc0707000080fa004f03be004f02be0017
:100680004f01be004f00be003600f90000400600da
:100690003600f800809fbe00829fbe00849fbe008f
:1006a000869fbe000000fa00c068a900200020005c
:1006b000ac0707000080fa004f03be004f02be00e7
:1006c0004f01be004f00be003600f900004006009a
:1006d0003600f800809fbe00829fbe00849fbe004f
:1006e000869fbe000000fa00c088a90030002000ec
:1006f0009c0707000080fa004f03be004f02be00b7
:100700004f01be004f00be003600f9000040060059
:100710003600f800809fbe00829fbe00849fbe000e
:10072000869fbe000000fa00c608a90070002000e5
:100730008c0707000080fa004f03be004f02be0086
:100740004f01be004f00be003600f9000040060019
:100750003600f800809fbe00829fbe00849fbe00ce
:10076000869fbe000000fa00214680000010200095
:10077000008060000000e00003003200c508a9000e
:10078000c00020007707070020468000700060004e
:100790000000e00003003200c488a900a00020008f
:1007a0007007070020468000610060000000e00044
:1007b00003003200c408a900b00020006907070048
:1007c000ffff3700801f78003200f8003400f80087
:1007d00010002000a00188001000200000d0fe00c2
:1007e0000000fa0060208000d0818800d081800065
:1007f000102a88000dc8a9000080fa003400f90012
:100800003200f9004f00780000400600809fbe00d3
:100810000000fa0091818000803e2000808f50000f
:1008200018003600a07180004a00de0061406000c0
:100830000004a200614060000080fb0061006000d5
:100840004a00dd00a171800001a0a100010070003c
:10085000a07188003230ef00a181800020032000c9
:10086000808f50000300360010c0b30031f0b70095
:1008700007003700a08180000000e800a081880008
:1008800003003700908180000000e800908188001c
:100890000068a9000080fa004f00be00004006007a
:1008a0003600f800809fbe00829fbe00849fbe007d
:1008b000869fbe003200f8003400f80010002000cf
:1008c000a00188001000200000d0fe000200fa0005
:1008d000356ea80061208000010f780031d0bf0084
:1008e0000004e000220032005181800070ef2000ff
:1008f000808f500004003e00508180000000e8001e
:10090000508188000200370080ef2000508188006d
:1009100050818000e302210000017800c1402000e6
:1009200080112100d105070071818000103b21005a
:100930000008b8004609dd004a00de000000710032
:10094000ca08de0000007800708188007181800094
:10095000d0eb2000808f500002003600d0eb20004a
:10096000708188007081800030618800030037004a
:100970002a30ef003070ef00262cef009e00780048
:10098000112a88000dc8a900356ea9000080fa0060
:100990003400f9003200f9004f03be004f02be00e0
:1009a0004f01be004f00be003600f90000400600b7
:0c09b0000040da000000fe00000005001e
:020000040000fa
:1009bc000400fa008e80e800800878000000eb004c
:1009cc00000f78000e80e80010007800904078004e
:1009dc00e0c06000014878008000e8009140780099
:1009ec00e0c060000000e800014878000e80e800dc
:1009fc001000780001002100f20f2000028160003d
:100a0c00430220008081410093417800e0c16100e5
:100a1c0082c17100420220000001410003497800ac
:100a2c00c808de005202200000014100124178008b
:100a3c0060416100814071005002b00001487800b3
:100a4c000e80e80010007800c1002100f20f200099
:100a5c000281600063022000808141009341780094
:100a6c00e0c1610082c171006202200000014100fe
:100a7c0003497800c808de00720220000001410022
:100a8c001241780060416100814071007002b00039
:100a9c00014878000e80e8001000780041fe22002a
:100aac00f20f20000281600083022000808141004f
:100abc0093417800e0c1610082c171008202200084
:100acc000001410003497800c808de0092022000b2
:100adc0000014100124178006041610081407100c9
:100aec009002b000014878000e80e80010007800f9
:100afc00a1fe2200f20f200002816000a302200060
:100b0c008081410093417800e0c1610082c1710095
:100b1c00a20220000001410003497800c808de0051
:100b2c00b2022000000141001241780060416100d6
:100b3c0081407100b002b00001487800e181800072
:100b4c000e80e80010007800f20f20000281600097
:100b5c00630320008081410093417800e0c1610073
:100b6c0082c171006203200000014100034978003a
:100b7c00c808de0072032000000141001241780019
:100b8c0060416100814071007003b0000148780041
:100b9c00f18180000e80e80010007800f20f200038
:100bac000281600083032000808141009341780022
:100bbc00e0c1610082c1710082032000000141008c
:100bcc0003497800c808de009203200000014100b0
:100bdc001241780060416100814071009003b000c7
:100bec0001487800018280000e80e8001000780037
:100bfc00f20f200002816000a303200080814100dd
:100c0c0093417800e0c1610082c17100a203200011
:100c1c000001410003497800c808de00b20320003f
:100c2c000001410012417800604161008140710077
:100c3c00b003b00001487800218180000e80e800ec
:100c4c0010007800f20f20000281600043032000a6
:100c5c008081410093417800e0c1610082c1710044
:100c6c00420320000001410003497800c808de005f
:100c7c0052032000000141001241780060416100e4
:100c8c00814071005003b00001487800e180800081
:100c9c000e80e80010007800f20f20000281600046
:100cac00c30220008081410093417800e0c16100c3
:100cbc0082c17100c202200000014100034978008a
:100ccc00c808de00d2022000000141001241780069
:100cdc006041610081407100d002b0000148780091
:100cec00f18080000e80e80010007800f20f2000e8
:100cfc0002816000e3022000808141009341780072
:100d0c00e0c1610082c17100e202200000014100db
:100d1c0003497800c808de00f202200000014100ff
:100d2c00124178006041610081407100f002b00016
:100d3c0001487800018180000e80e80010007800e6
:100d4c00f20f20000281600003032000808141002b
:100d5c0093417800e0c1610082c171000203200060
:100d6c000001410003497800c808de00120320008e
:100d7c000001410012417800604161008140710026
:100d8c001003b00001487800118180000e80e8004b
:100d9c0010007800f20f2000028160002303200075
:100dac008081410093417800e0c1610082c17100f3
:100dbc00220320000001410003497800c808de002e
:100dcc0032032000000141001241780060416100b3
:100ddc00814071003003b000014878000000eb0046
:100dec00000f78000e0037001e0178001e007800fe
:100dfc00c200dd00c00f2100008040009000900078
:100e0c0010007800c211dd000200210002814100b7
:100e1c000089be001e0078000000e800000f78007a
:100e2c000e80e80010007800c10220008080400095
:100e3c00914078008180fb00d002b0001040780017
:100e4c000080fb004800dd00008070009e007800f0
:100e5c00810f5000e4ff3e000000eb00000f780013
:100e6c000f0037001e0178001e007800c200dd0064
:100e7c00801021000080400090009000100078004d
:100e8c0063014100c211dd0002002100028141001a
:100e9c000089be001e0078000000e800000f7800fa
:100eac000e80e80010007800e102200080804000f5
:100ebc00914078008180fb00f002b0001040780077
:100ecc000080fb004800dd00008070009e00780070
:100edc00810f5000e3ff3e0040052100d8020700bf
:100eec00318180000e80e80010007800f20f2000a5
:100efc0002816000e303200080814100934178006f
:100f0c00e0c1610082c17100e203200000014100d8
:100f1c0003497800c808de00f203200000014100fc
:100f2c00124178006041610081407100f003b00013
:100f3c0001487800418180000e80e80010007800a4
:100f4c00f20f200002816000c30320008081410069
:100f5c0093417800e0c1610082c17100c20320009e
:100f6c000001410003497800c808de00d2032000cc
:100f7c000001410012417800604161008140710024
:100f8c00d003b00001487800100020000080fa0067
:100f9c00000006000000fa00022cef000e2cef00ff
:100fac00102cef0080ff2f0090608800142cef00b5
:100fbc00d0eb200020608800062cef000a2cef00fc
:100fcc001a2cef001e2cef00202cef00402cef0011
:100fdc00602cef00802cef00a02cef00c02cef0059
:100fec00e02cef00002def0000002c00e3c12000ee
:100ffc0011322400d2bc2a008209780081097800c1
:10100c001061880000002c00e3c120001132240084
:10101c00d2bc2a008209780081097800106288000d
:10102c0000002c00e3c1200011322400d2bc2a00a5
:10103c0082097800810978001063880000002c0078
:10104c00e3c1200011322400d2bc2a0082097800ae
:10105c00810978001064880000002c00e3c1200096
:10106c0011322400d2bc2a00820978008109780050
:10107c001065880000002c00e3c120001132240010
:10108c00d2bc2a0082097800810978001066880099
:10109c0000002c00e3c1200011322400d2bc2a0035
:1010ac0082097800810978001067880000002c0004
:1010bc00e3c1200011322400d2bc2a00820978003e
:1010cc00810978001068880080402000e3c120006e
:1010dc0011322400d2bc2a008209780081097800e0
:1010ec002061880080402000e3c1200011322400e0
:1010fc00d2bc2a008209780081097800206288001d
:10110c0080402000e3c1200011322400d2bc2a0010
:10111c0082097800810978002063880080402000d3
:10112c00e3c1200011322400d2bc2a0082097800cd
:10113c00810978002064880080402000e3c12000f1
:10114c0011322400d2bc2a0082097800810978006f
:10115c002065880080402000e3c12000113224006b
:10116c00d2bc2a00820978008109780020668800a8
:10117c0080402000e3c1200011322400d2bc2a00a0
:10118c00820978008109780020678800804020005f
:10119c00e3c1200011322400d2bc2a00820978005d
:1011ac008109780020688800262cef00462cef007f
:1011bc00662cef00862cef00a62cef00c62cef005f
:1011cc00e62cef00062def00282cef00482cef004a
:1011dc00682cef00882cef00a82cef00c82cef0037
:1011ec00e82cef00082def00c00b200050618800a8
:1011fc004a2cef006a2cef008a2cef00aa2cef008f
:10120c00ca2cef00ea2cef000a2def00c00b2000d7
:10121c00606188004c2cef006c2cef008c2cef00e4
:10122c00ac2cef00cc2cef00ec2cef000c2def00d5
:10123c002e2cef004e2cef006e2cef008e2cef00be
:10124c00ae2cef00ce2cef00ee2cef000e2def00ad
:10125c00302cef00502cef00702cef00902cef0096
:10126c00b02cef00d02cef00f02cef00102def0085
:10127c004006200090618800522cef00722cef0089
:10128c00922cef00b22cef00d22cef00f22cef00de
:10129c00122def00342cef00542cef00742cef00c7
:1012ac00942cef00b42cef00d42cef00f42cef00b6
:1012bc00142def00362cef00562cef00762cef009f
:1012cc00962cef00b62cef00d62cef00f62cef008e
:1012dc00162def00382cef00582cef00782cef0077
:1012ec00982cef00b82cef00d82cef00f82cef0066
:1012fc00182def003a2cef005a2cef007a2cef004f
:10130c009a2cef00ba2cef00da2cef00fa2cef003d
:10131c001a2def003c2cef005c2cef007c2cef0026
:10132c009c2cef00bc2cef00dc2cef00fc2cef0015
:10133c001c2def003e2cef005e2cef007e2cef00fe
:10134c009e2cef00be2cef00de2cef00fe2cef00ed
:10135c001e2def0000002800006088000080fa00bd
:10136c00000006000000fa000080fa0000000600f1
:10137c000000fa0031408000002020000080600056
:10138c000000e00002003200f6ff07000728a90069
:10139c000080fa00000006000000fa000080fa004d
:1013ac00000006000000fa00314080000020200000
:1013bc00008060000000e00002003200f6ff070031
:1013cc000bc8a9000080fa00000006000000fa001b
:1013dc000080fa00000006000000fa003140800096
:1013ec0000202000008060000000e00002003200bd
:1013fc00f6ff07000be8a9000080fa0000000600c9
:10140c000000fa000080fa00000006000000fa005c
:10141c003140800000202000008060000000e000cf
:10142c0002003200f6ff07000c08a9000080fa0049
:10143c00000006000000fa000080fa000000060020
:10144c000000fa0031408000002020000080600085
:10145c000000e00002003200f6ff07000c28a90093
:10146c000080fa00000006000000fa000080fa007c
:10147c00000006000000fa0031408000002020002f
:10148c00008060000000e00002003200f6ff070060
:10149c000c48a9000080fa00000006000000fa00c9
:1014ac000080fa00000006000000fa0031408000c5
:1014bc0000202000008060000000e00002003200ec
:1014cc00f6ff07000c68a9000080fa000000060077
:1014dc000000fa000080fa00000006000000fa008c
:1014ec003140800000202000008060000000e000ff
:1014fc0002003200f6ff07000c88a9000080fa00f9
:10150c00000006000000fa000080fa00000006004f
:10151c000000fa00314080000020200000806000b4
:10152c000000e00002003200f6ff07000ca8a90042
:10153c000080fa00000006000000fa000023ef0013
:10154c0000062000101888000423ef000623ef008b
:10155c000823ef0000002c00501888000c23ef002b
:10156c000e23ef001023ef001223ef001423ef00e3
:10157c0010002000001988002223ef003823ef0010
:10158c004023ef003a23ef004223ef003c23ef000f
:10159c004423ef003e23ef004623ef0000402000e1
:1015ac00501b880000402000701b8800a023ef0017
:1015bc00a423ef00c023ef00d023ef00d223ef00d1
:1015cc00d423ef00d823ef00dc23ef00e023ef005f
:1015dc0000302000b01e880000302000d01e880093
:1015ec0000302000f01e880000302000101f880002
:1015fc00f023ef00f223ef000224ef00a0c2200042
:10160c009400070080c52000aa0007000dc8a9009f
:10161c002dc8a8001120800000f0200001007000ef
:10162c001020880001e3a8000f0007001900070034
:10163c0050002000001c88008223ef008423ef0060
:10164c008623ef008823ef008a23ef008c23ef0022
:10165c008e23ef009023ef009223ef009423ef00f2
:10166c000080fa00000006000000fa000004a80048
:10167c0000000000012080000010200000806000ad
:10168c000000e000fbff32000a03a8000080fa0013
:10169c00000006000000fa000424a8000444a9007d
:1016ac000404a80000000000212080000008200095
:1016bc00008060000000e000fbff32000424a90061
:1016cc000080fa00000006000000fa000024a800c8
:1016dc00000000000120800000202000008060003d
:1016ec000000e000fbff32000a23a8000080fa0093
:1016fc00000006000000fa000524a8000544a9001b
:10170c000504a80000000000212080000000280033
:10171c00008060000000e000fbff32000524a900ff
:10172c000080fa00000006000000fa000044a80047
:10173c0000000000012080000040200000806000bc
:10174c000000e000fbff32000a43a8000080fa0012
:10175c00000006000000fa000624a8000644a900b8
:10176c000604a800000000003120800000082000c2
:10177c00008060000000e000fbff32000624a9009e
:10178c000080fa00000006000000fa000064a800c7
:10179c00000000000120800000802000008060001c
:1017ac000000e000fbff32000a63a8000080fa0092
:1017bc00000006000000fa000724a8000744a90056
:1017cc000704a80000000000312080000000280061
:1017dc00008060000000e000fbff32000724a9003d
:1017ec000080fa00000006000000fa0000e4a800e7
:1017fc000000000001208000000028000080600034
:10180c000000e000fbff32000ae3a8000080fa00b1
:10181c00000006000000fa000b24a8000b44a900ed
:10182c000b04a800000000005120800000002800dc
:10183c00008060000000e000fbff32000b24a900d8
:10184c000080fa00000006000000fa000080fa0098
:10185c00000006000200fa00000f78001e0078005d
:10186c00b08188000080fa00000006000000fa0039
:10187c000140800000002200008060000000e000b9
:10188c0006003200b08180000000e000020032004f
:10189c00b08180000000010001a8a9000080fa00be
:1018ac00000006000200fa00000f78000080fa0029
:1018bc00000006000200fa00000f78001e007800fd
:1018cc00c08188000080fa000000060000a0fe0025
:1018dc00841f7800851f7800861f7800881f780089
:1018ec008a1f78002200f8002400f8002600f80077
:1018fc002800f8002a00f8002c00f8004400f8003a
:10190c004200f800040c20002402880050159000be
:10191c002a039000360598001a03900026059800bb
:10192c000a039000160598001001900092007800b0
:10193c001011900092801000201990008208dd0098
:10194c0030149000010d78005290c3008608c3003b
:10195c008708c1000500c8000080cb00d8ba9700ea
:10196c008708c1000500c8000080cb00d8ba9700da
:10197c008708c1000500c8000080cb00d8ba9700ca
:10198c001301c1000500c8000080cb00201490009a
:10199c00401590005290c7008608c3008708c1000c
:1019ac000500c8000080cb00d8ba97008708c1009a
:1019bc000500c8000080cb00d8ba97001301c10005
:1019cc000500c8000080cb000480cd0040239000af
:1019dc001620e600060278005023900016a0e600c0
:1019ec0006027800100c9000040c78004015900052
:1019fc001a039000260598000a039000160598001b
:101a0c00040d78004200f9004400f9002c00f900a4
:101a1c002a00f9002800f9002600f9002400f9003a
:101a2c002200f9004f0578004f0478004f0378002e
:101a3c00cf0278004f0278000080fe000000060004
:101a4c00801f7800401090000018eb000018eb008d
:101a5c000008eb004f007800801f780050109000b9
:101a6c000018eb000018eb000018eb000008eb006e
:101a7c004f00780000000600801f7800811f78005e
:101a8c0050109000011878000118780001187800a7
:101a9c0001087800cf0078004f007800801f780094
:101aac00821f78004010900002187800021878000d
:101abc00020878004f0178004f0078000000060003
:101acc0000a0fe00841f7800861f7800881f780015
:101adc008a1f78002200f8002400f8002600f80085
:101aec002800f8002a00f8002c00f8004400f80048
:101afc004200f800040c2000240288001001900021
:101b0c009200780010119000928010002019900023
:101b1c008208dd00701b90006019900001027800b3
:101b2c001301c1000200c8000400cd004023900046
:101b3c001620e600060278005023900016a0e6005e
:101b4c0006027800100c9000040c78004200f9009a
:101b5c004400f9002c00f9002a00f9002800f900d3
:101b6c002600f9002400f9002200f9004f05780046
:101b7c004f0478004f0378004f0278000080fe007d
:101b8c00000006000000fa00003a80000080fa0015
:101b9c00000006000200fa00faff0700000f7800b0
:101bac001e007800240007000004e0000200320050
:101bbc00000028007d0007001e0078002c000700a4
:101bcc000004e0000200320000002400770007004f
:101bdc001e007800360007000004e000020032000e
:101bec0000202000710007001e0078004000070054
:101bfc000004e00002003200000820006b00070027
:101c0c001e0078004a0007000004e00002003200c9
:101c1c0000042000650007001e0078005400070037
:101c2c000004e00002003200000120005f00070009
:101c3c000080fa00000006000400fa008e80e80024
:101c4c00800878000040eb00004f78000e80e80020
:101c5c00100078000000e00002003d0010c0b3004e
:101c6c00004f78001e4078000080fa00000006004b
:101c7c000400fa008e80e800800878000040eb0039
:101c8c00004f78000e80e8009000780000002400df
:101c9c00008060000000e0000200320010c0b300c1
:101cac00004f78001e4078000080fa00000006000b
:101cbc000400fa008e80e800800878000040eb00f9
:101ccc00004f78000e80e800900078000020200083
:101cdc00008060000000e0000200320010c0b30081
:101cec00004f78001e4078000080fa0000000600cb
:101cfc000400fa008e80e800800878000040eb00b9
:101d0c00004f78000e80e80090007800000820005a
:101d1c00008060000000e0000200320010c0b30040
:101d2c00004f78001e4078000080fa00000006008a
:101d3c000400fa008e80e800800878000040eb0078
:101d4c00004f78000e80e80090007800000420001e
:101d5c00008060000000e0000200320010c0b30000
:101d6c00004f78001e4078000080fa00000006004a
:101d7c000400fa008e80e800800878000040eb0038
:101d8c00004f78000e80e8001000780070006000b2
:101d9c000000e0000200320010c0b300004f7800d9
:101dac001e4078000080fa00000006000200fa00d5
:101dbc00000f78001e80ea00013a800001006000ec
:101dcc00003a88000080fa00000006000000fa00cb
:101ddc004027ef000080fa00000006000000fa0027
:101dec000021ef00a0b2210010088800000028009c
:101dfc0020088800108280000000e00002003a00f9
:101e0c00c0f42000240007000068a9002068a80086
:101e1c00a01221008040eb00014878000080fa00fd
:101e2c00000006000200fa00000f78009e00780007
:101e3c0011088800a01221008040eb0001487800b6
:101e4c000080fa00000006000000fa001008800074
:101e5c000080fa00000006000200fa00000f780073
:101e6c009e00780001088800a01221008040eb0041
:101e7c00014878000080fa00000006000000fa001b
:101e8c00000880000080fa00000006000000fa0044
:101e9c000080fa00000006000200fa00000f780033
:101eac002068a9009e007800118288002068a80094
:101ebc000080fa00000006000000fa00a0122100c9
:101ecc008040eb00014878002068a80005e1a800dc
:101edc000080fa00000006000000fa0005e1a900ed
:101eec002068a9000080fa00000006000200fa0039
:101efc00a0122100104f78001e4078000004e00072
:101f0c0003003200a01221008040eb000148780051
:101f1c001e4078000080fa00000006000000fa0065
:101f2c00b0122100104078000080fb000080fa0005
:101f3c00000006000000fa00b01221008040eb0007
:101f4c00014878000080fa00000006000000fa004a
:101f5c0010182000002a88004225ef0010c0b300a2
:101f6c00020007000080fa00000006000200fa00e0
:101f7c00004f78001e80fb004f00dd00012a80001e
:101f8c0001f0a10001007000002a88000080fa0016
:101f9c00000006000200fa00000f78001e00780016
:101fac0000407800634060000080fb00630060002c
:101fbc004600dd00022a8000f1f32f008100610051
:101fcc0001007000002a88000080fa000000060062
:101fdc000000fa00002a80004800de00614060002a
:101fec000080fb0000f0a7000000ea000000ea00ff
:101ffc004f00de00004078000080fa000000060070
:10200c000000fa00002a80004300de0061406000fe
:10201c000080fb0000f0a7000000ea000000ea00ce
:10202c004f00de00004078000080fa00000006003f
:10203c000000fa000080fa00000006000000fa0020
:10204c0010408000640060000000e00002003200dc
:10205c00f7ff07000248a9000080fa000000060004
:10206c00841f7800851f7800881f78008a1f7800ed
:10207c004400f800040a2000240288003005900077
:10208c0040049000aa029000350598009a02900036
:10209c00250598008a0290001505980091025100c0
:1020ac00882add00050d7800100490004604c3005a
:1020bc004604c0004604c0004604c0001201c00023
:1020cc0000049000200590004604c7004604c000a0
:1020dc000204c0001201c0000400cd00e002900018
:1020ec001301c000d00290000500c8000400cd0010
:1020fc00faba9700050d7800eaba970075bd9f00f3
:10210c0064bd9f00f00290001520e60005027800e7
:10211c00800a900015a0e60005027800840978007a
:10212c004400f9004f0578004f047800cf02780086
:10213c004f02780000000600801f780020009000fd
:10214c000018eb000018eb000008eb004f007800c3
:10215c00801f7800300090000018eb000018eb0096
:10216c000018eb000008eb004f00780000000600a0
:020000040000fa
:10217c002a11000002000000800000004210000044
:10218c000200000080000000dc10000020000000b5
:10219c0080000000441000000200000082000000db
:1021ac00ffff000036100000060000008000000059
:1021bc001811000012000000800000004610000002
:1021cc000e00000080000000f22f00000e00000046
:1021dc00800000002a1000000c00000080000000ad
:1021ec00fc1000001c00000082000000ffffc70074
:1021fc0068010000bc8d020000569e000100b0007a
:10220c0053010000feb30100007eac000100300061
:10221c004c000000541000008800000080000000fa
:10222c00001000001c000000800000001c100000ca
:10223c000e000000820000000300040000030000f8
:10224c000400030000f6680001000000e42f000009
:10225c000e000000800000003c1000000600000092
:08226c008000000000000000ea
:020000040000fa
:102274000000fa0000102300203a88004827ef00ed
:102284004e27ef0050092000303a880000742a00dd
:10229400803a88004c27ef006027ef006227ef00a8
:1022a4006427ef006a27ef006c27ef006e27ef002a
:1022b4001200200080072000a109200033742000b0
:1022c4008049780081497800824978001200200012
:1022d40060042000710520002374200080497800e8
:1022e400814978008249780000000000103a80009b
:1022f400610060000000e000fcff3a000000000004
:10230400113a800000022000008060000000e0001c
:10231400fbff32000080fa00000006000000fa0013
:10232400803a80004e00de00614060000080fb00c7
:1023340000f0a7000000ea000000ea004f00de0001
:10234400004078000080fa00000006000000fa0057
:102354000200070067000700ffff37000000fa00d3
:1023640060042100c0888800c0042100d08888004f
:1023740020ff2200e088880080ff2200f088880087
:102384000000eb00008988000080eb0010898800c1
:10239400908c2600208988000000eb00308988009a
:1023a400f0ff2700408988008011210064ff0700a6
:1023b400c0888000c1ff270001087800c088800021
:1023c4000080e800b1d12d0001087800c0888000a9
:1023d4006400400071112f0001087800d08880004b
:1023e400e182220001087800d08880000080e800a3
:1023f40011b82d0001087800d088800064004000e6
:10240400717e2d0001087800d088800066004000ad
:1024140041492200010878002a30ef000080fa00c8
:10242400000006000000fa00042eef00142eef0056
:10243400242eef00342eef0070002000007088007e
:1024440030bf2f0080708800106ea900f07f2f002d
:1024540000718800f03f2f00807188000c2eef007f
:102464001c2eef002c2eef003c2eef000a2eef0066
:102474001a2eef002a2eef003a2eef00062eef0060
:10248400162eef00262eef00362eef0070002000ef
:102494007070880070222000f07088001e6ea80002
:1024a4006065210070718800401a2200f071880074
:1024b4000080fa00000006000200fa00000f780015
:1024c40021028000200f2000008060001e007000a8
:1024d400200288000080fa00000006000000fa00d4
:1024e400c3e8a80000000000000000000080fa001b
:1024f400000006000000fa00caff07005cff0700a6
:102504000900070093fe07000dfc0700a3fa07006b
:1025140034fe0700f1ff070000022000e6ff070079
:102524000080fa00000006000000fa00014280006a
:10253400f0ff28000080600000d0a0000042880066
:10254400b1438000f08f2f00808060000050200095
:1025540001007000b04388000080fa00000006000b
:102564000200fa00000f78009e00780021828800a3
:10257400ffff37000000fa00c00d2100800778003b
:10258400400f2100000188000080fa0000000600ce
:020000040000fa
:020000040002f8
:04af0000ffffff0050
:020000040000fa
:020000040002f8
:04af2000ff1f00000f
:020000040000fa
:020000040002f8
:04af300078ffff00a7
:020000040000fa
:020000040002f8
:04af38003bffff00dc
:020000040000fa
:020000040002f8
:04af40009fffff0070
:020000040000fa
:020000040002f8
:04af5000dfffff0020
:020000040000fa
:020000040002f8
:04af5800feffff00f9
:020000040000fa
:020000040002f8
:04af6000ffffff00f0
:020000040000fa
:020000040002f8
:04aff800ff0f000047
:020000040000fa
:020000040100f9
:04200000ffffff00df
:00000001FF
