:020000040000fa
:080000000002040000000000f2
:020000040000fa
:04000800c20300002f
:020000040000fa
:04000c0004040000e8
:020000040000fa
:0400100044040000a4
:020000040000fa
:04001400e203000003
:020000040000fa
:0400180024040000bc
:020000040000fa
:04001c00400500009b
:020000040000fa
:040020006404000074
:020000040000fa
:040024004005000093
:020000040000fa
:04002800400500008f
:020000040000fa
:04002c009e0400002e
:020000040000fa
:040030004005000087
:020000040000fa
:040034004005000083
:020000040000fa
:04003800400500007f
:020000040000fa
:04003c00400500007b
:020000040000fa
:040040004005000077
:020000040000fa
:040044004005000073
:020000040000fa
:04004800400500006f
:020000040000fa
:04004c00400500006b
:020000040000fa
:040050004005000067
:020000040000fa
:040054004005000063
:020000040000fa
:04005800400500005f
:020000040000fa
:04005c00400500005b
:020000040000fa
:040060004005000057
:020000040000fa
:040064004005000053
:020000040000fa
:04006800400500004f
:020000040000fa
:04006c00400500004b
:020000040000fa
:040070004005000047
:020000040000fa
:040074004005000043
:020000040000fa
:04007800400500003f
:020000040000fa
:04007c00400500003b
:020000040000fa
:040080004005000037
:020000040000fa
:040084004005000033
:020000040000fa
:04008800400500002f
:020000040000fa
:04008c00400500002b
:020000040000fa
:040090004005000027
:020000040000fa
:040094004005000023
:020000040000fa
:04009800400500001f
:020000040000fa
:04009c00400500001b
:020000040000fa
:0400a0004005000017
:020000040000fa
:0400a4004005000013
:020000040000fa
:0400a800400500000f
:020000040000fa
:0400ac00400500000b
:020000040000fa
:0400b0004005000007
:020000040000fa
:0400b4004005000003
:020000040000fa
:0400b80040050000ff
:020000040000fa
:0400bc0040050000fb
:020000040000fa
:0400c00040050000f7
:020000040000fa
:0400c40040050000f3
:020000040000fa
:0400c80040050000ef
:020000040000fa
:0400cc0040050000eb
:020000040000fa
:0400d00040050000e7
:020000040000fa
:0400d40040050000e3
:020000040000fa
:0400d80040050000df
:020000040000fa
:0400dc0040050000db
:020000040000fa
:0400e00040050000d7
:020000040000fa
:0400e40040050000d3
:020000040000fa
:0400e80040050000cf
:020000040000fa
:0400ec0040050000cb
:020000040000fa
:0400f00040050000c7
:020000040000fa
:0400f40040050000c3
:020000040000fa
:0400f80040050000bf
:020000040000fa
:0400fc0040050000bb
:020000040000fa
:0401000040050000b6
:020000040000fa
:0401040040050000b2
:020000040000fa
:0401080040050000ae
:020000040000fa
:04010c0040050000aa
:020000040000fa
:0401100040050000a6
:020000040000fa
:0401140040050000a2
:020000040000fa
:04011800400500009e
:020000040000fa
:04011c00400500009a
:020000040000fa
:040120004005000096
:020000040000fa
:040124004005000092
:020000040000fa
:04012800400500008e
:020000040000fa
:04012c00400500008a
:020000040000fa
:040130004005000086
:020000040000fa
:040134004005000082
:020000040000fa
:04013800400500007e
:020000040000fa
:04013c00400500007a
:020000040000fa
:040140004005000076
:020000040000fa
:040144004005000072
:020000040000fa
:04014800400500006e
:020000040000fa
:04014c00400500006a
:020000040000fa
:040150004005000066
:020000040000fa
:040154004005000062
:020000040000fa
:04015800400500005e
:020000040000fa
:04015c00400500005a
:020000040000fa
:040160004005000056
:020000040000fa
:040164004005000052
:020000040000fa
:04016800400500004e
:020000040000fa
:04016c00400500004a
:020000040000fa
:040170004005000046
:020000040000fa
:040174004005000042
:020000040000fa
:04017800400500003e
:020000040000fa
:04017c00400500003a
:020000040000fa
:040180004005000036
:020000040000fa
:040184004005000032
:020000040000fa
:04018800400500002e
:020000040000fa
:04018c00400500002a
:020000040000fa
:040190004005000026
:020000040000fa
:04019400e80400007b
:020000040000fa
:04019800400500001e
:020000040000fa
:04019c00400500001a
:020000040000fa
:0401a0004005000016
:020000040000fa
:0401a4004005000012
:020000040000fa
:0401a800400500000e
:020000040000fa
:0401ac00400500000a
:020000040000fa
:0401b0004005000006
:020000040000fa
:0401b4004005000002
:020000040000fa
:0401b80040050000fe
:020000040000fa
:0401bc0040050000fa
:020000040000fa
:0401c00040050000f6
:020000040000fa
:0401c40040050000f2
:020000040000fa
:0401c80040050000ee
:020000040000fa
:0401cc0040050000ea
:020000040000fa
:0401d00040050000e6
:020000040000fa
:0401d40040050000e2
:020000040000fa
:0401d80040050000de
:020000040000fa
:0401dc0040050000da
:020000040000fa
:0401e00040050000d6
:020000040000fa
:0401e40040050000d2
:020000040000fa
:0401e80040050000ce
:020000040000fa
:0401ec0040050000ca
:020000040000fa
:0401f00040050000c6
:020000040000fa
:0401f40040050000c2
:020000040000fa
:0401f80040050000be
:020000040000fa
:0401fc0040050000ba
:020000040000fa
:0402000040050000b5
:020000040000fa
:0402040040050000b1
:020000040000fa
:0402080040050000ad
:020000040000fa
:04020c0040050000a9
:020000040000fa
:0402100040050000a5
:020000040000fa
:0402140040050000a1
:020000040000fa
:04021800400500009d
:020000040000fa
:04021c004005000099
:020000040000fa
:040220004005000095
:020000040000fa
:040224004005000091
:020000040000fa
:04022800400500008d
:020000040000fa
:04022c004005000089
:020000040000fa
:040230004005000085
:020000040000fa
:040234004005000081
:020000040000fa
:04023800400500007d
:020000040000fa
:04023c004005000079
:020000040000fa
:040240004005000075
:020000040000fa
:040244004005000071
:020000040000fa
:04024800400500006d
:020000040000fa
:04024c004005000069
:020000040000fa
:040250004005000065
:020000040000fa
:040254004005000061
:020000040000fa
:04025800400500005d
:020000040000fa
:04025c004005000059
:020000040000fa
:040260004005000055
:020000040000fa
:040264004005000051
:020000040000fa
:04026800400500004d
:020000040000fa
:04026c004005000049
:020000040000fa
:040270004005000045
:020000040000fa
:040274004005000041
:020000040000fa
:04027800400500003d
:020000040000fa
:04027c004005000039
:020000040000fa
:040280004005000035
:020000040000fa
:040284004005000031
:020000040000fa
:04028800400500002d
:020000040000fa
:04028c004005000029
:020000040000fa
:040290004005000025
:020000040000fa
:040294004005000021
:020000040000fa
:04029800400500001d
:020000040000fa
:04029c004005000019
:020000040000fa
:0402a0004005000015
:020000040000fa
:0402a4004005000011
:020000040000fa
:0402a800400500000d
:020000040000fa
:0402ac004005000009
:020000040000fa
:0402b0004005000005
:020000040000fa
:0402b4004005000001
:020000040000fa
:0402b80040050000fd
:020000040000fa
:0402bc0040050000f9
:020000040000fa
:0402c00040050000f5
:020000040000fa
:0402c40040050000f1
:020000040000fa
:0402c80040050000ed
:020000040000fa
:0402cc0040050000e9
:020000040000fa
:0402d00040050000e5
:020000040000fa
:0402d40040050000e1
:020000040000fa
:0402d80040050000dd
:020000040000fa
:0402dc0040050000d9
:020000040000fa
:0402e00040050000d5
:020000040000fa
:0402e40040050000d1
:020000040000fa
:0402e80040050000cd
:020000040000fa
:0402ec0040050000c9
:020000040000fa
:0402f00040050000c5
:020000040000fa
:0402f40040050000c1
:020000040000fa
:0402f80040050000bd
:020000040000fa
:0402fc0040050000b9
:020000040000fa
:0403000040050000b4
:020000040000fa
:0403040040050000b0
:020000040000fa
:0403080040050000ac
:020000040000fa
:04030c0040050000a8
:020000040000fa
:0403100040050000a4
:020000040000fa
:0403140040050000a0
:020000040000fa
:04031800400500009c
:020000040000fa
:04031c004005000098
:020000040000fa
:040320004005000094
:020000040000fa
:040324004005000090
:020000040000fa
:040328000e030000c0
:020000040000fa
:04032c004a03000080
:020000040000fa
:040330004005000084
:020000040000fa
:040334004005000080
:020000040000fa
:100400000f0421000eff24000e01880000000000f0
:10041000000020000000e000020032000001200087
:100420002002880014000700970107000000e00088
:1004300003003a0020f520000100200002003700f0
:100440000000200001002000810f70000100320038
:100450000f000700000020000000e0000200320052
:100460000000020000000000d407020000000000ad
:100470000040da000000fe00200020000000e00044
:1004800002003200100020009001880000000600e9
:10049000a1028800800478000000eb001f003700f4
:1004a000e284440054a0b4009905ba00e2844400f8
:1004b00054a0b4009906ba00e284440054a0b400e9
:1004c0000006eb00476fde00fd07b200ae018800ba
:1004d000636ce10003003a000ad801000000eb0061
:1004e0000e003700606ce10008003a00004deb00a0
:1004f0000a05e800020039003420ec000af0a000f0
:100500008b05e900f9ff3e00040037006168e10057
:10051000010032000086eb000b00070019c7ba008b
:100520001905ba000e04e00003003a000a00e000da
:10053000dbff3a0000000600fe07b200ae028800b2
:100540008a047800f5ff37000cd0a300e20f4d00bd
:100550001c003b0089027800354dba000a05e8000e
:10056000020039003420ec000af0a0008b05e900fd
:100570000f003200254dba000a05e80002003900dc
:100580003420ec000af0a0008b05e90008003200de
:100590000c00e0000600320015cdba000a05e800a4
:1005a000020039003420ec000af0a0008b05e900bd
:1005b0008984e80054a0b4000b00e000e2ff3a0098
:1005c000000006009902ba00055d78008b05e9007d
:1005d000f7ff3200c82ade00055d78008b05e900d0
:1005e000f3ff32000c00e000f1ff320019ddba0029
:1005f000eeff3700520a040000000000800a0400e9
:1006000000000000940a040000000000a80a040092
:10061000000000006e0e0400000000003600f8002c
:10062000809fbe00829fbe00849fbe00869fbe004a
:100630003200f8003400f80010002000a00188000b
:100640001000200000d0fe000200fa00e1618000ee
:10065000010f7800408180000000e00003003200bc
:10066000418180001e007800010001001808a900e7
:100670000080fa003400f9003200f9004f03be0098
:100680004f02be004f01be004f00be003600f90011
:10069000004006003600f800809fbe00829fbe002a
:1006a000849fbe00869fbe003200f8003400f80030
:1006b00010002000a00188001000200000d0fe00e3
:1006c0000200fa00f1618000010f78005081800083
:1006d0000000e00003003200518180001e0078001d
:1006e000010001001828a9000080fa003400f90078
:1006f0003200f9004f03be004f02be004f01be00a2
:100700004f00be003600f900004006003600f80039
:10071000809fbe00829fbe00849fbe00869fbe0059
:100720003200f8003400f80010002000a00188001a
:100730001000200000d0fe000200fa00616080007e
:10074000010f7800608180000000e00003003200ab
:10075000618180001e007800010001000b68a90083
:100760000080fa003400f9003200f9004f03be00a7
:100770004f02be004f01be004f00be003600f90020
:10078000004006003600f800809fbe00829fbe0039
:10079000849fbe00869fbe000000fa00c028a9000a
:1007a0000000eb00490607000080fa004f03be007e
:1007b0004f02be004f01be004f00be003600f900e0
:1007c000004006003600f800809fbe00829fbe00f9
:1007d000849fbe00869fbe000000fa00400607000e
:1007e000c048a90010002000380607000080fa0069
:1007f0004f03be004f02be004f01be004f00be00bf
:100800003600f900004006003600f800809fbe0068
:10081000829fbe00849fbe00869fbe000000fa003b
:10082000c068a90020002000280607000080fa0008
:100830004f03be004f02be004f01be004f00be007e
:100840003600f900004006003600f800809fbe0028
:10085000829fbe00849fbe00869fbe000000fa00fb
:10086000c088a90030002000180607000080fa00a8
:100870004f03be004f02be004f01be004f00be003e
:100880003600f900004006003600f800809fbe00e8
:10089000829fbe00849fbe00869fbe000000fa00bb
:1008a000c608a90070002000080607000080fa00b2
:1008b0004f03be004f02be004f01be004f00be00fe
:1008c0003600f900004006003600f800809fbe00a8
:1008d000829fbe00849fbe00869fbe000000fa007b
:1008e0002146800000102000008060000000e00031
:1008f00003003200c508a900c0002000f30507006e
:1009000020468000700060000000e000030032001c
:10091000c488a900a0002000ec0507002046800044
:10092000610060000000e00003003200c408a9007c
:10093000b0002000e5050700ffff3700809fbe00e4
:100940000000fa0091818000803e2000808f5000de
:1009500018003600d072800088800a000000000075
:100960000004a200614060000080fb0061006000a4
:100970004800dd00d17280000180a10001007000fc
:10098000d07288003230ef00a18180002003200067
:10099000808f50000300360010c0b30030f0b70065
:1009a00007003700a08180000000e800a0818800d7
:1009b00003003700908180000000e80090818800eb
:1009c0000028a9000080fa004f00be000040060089
:1009d0003600f800809fbe00829fbe00849fbe004c
:1009e000869fbe003200f8003400f800100020009e
:1009f000a00188001000200000d0fe000200fa00d4
:100a00005baea80061608000010f780030d0bf00ad
:100a10000004e0000d0032007181800070ef2000c2
:100a2000808f500004003e00708180000000e800cc
:100a3000708188000200370080ef200070818800fc
:100a4000e0002500fc030700020037002e30ef0015
:100a50004e23ef000b68a9005baea9000080fa00ee
:100a60003400f9003200f9004f03be004f02be000f
:100a70004f01be004f00be003600f90000400600e6
:0c0a80000040da000000fe00000005004d
:020000040000fa
:100a8c000400fa008e80e800800878000000eb007b
:100a9c00000f78000e80e80010007800f0400a008b
:100aac00100000000e80e80010007800010021000a
:100abc00f20f20000281600043022000808141007f
:100acc0093417800e0c1610082c1710042022000b4
:100adc000001410003497800c808de0052022000e2
:100aec0000014100124178006041610081407100b9
:100afc005002b000014878000e80e8001000780029
:100b0c00c1002100f20f200002816000630220006e
:100b1c008081410093417800e0c1610082c1710085
:100b2c00620220000001410003497800c808de0081
:100b3c007202200000014100124178006041610006
:100b4c00814071007002b000014878000e80e8000e
:100b5c001000780001002500f20f200002816000d7
:100b6c00830220008081410093417800e0c1610044
:100b7c0082c171008202200000014100034978000b
:100b8c00c808de00920220000001410012417800ea
:100b9c0060416100814071009002b0000148780012
:100bac000e80e8001000780061002500f20f200094
:100bbc0002816000a30220008081410093417800f3
:100bcc00e0c1610082c17100a2022000000141005d
:100bdc0003497800c808de00b20220000001410081
:100bec00124178006041610081407100b002b00098
:100bfc0001487800b18180000e80e8001000780078
:100c0c00f20f20000281600063032000808141000c
:100c1c0093417800e0c1610082c171006203200041
:100c2c000001410003497800c808de00720320006f
:100c3c000001410012417800604161008140710067
:100c4c007003b00001487800c18180000e80e8007c
:100c5c0010007800f20f2000028160008303200056
:100c6c008081410093417800e0c1610082c1710034
:100c7c00820320000001410003497800c808de000f
:100c8c009203200000014100124178006041610094
:100c9c00814071009003b00001487800d181800040
:100cac000e80e80010007800f20f20000281600036
:100cbc00a30320008081410093417800e0c16100d2
:100ccc0082c17100a2032000000141000349780099
:100cdc00c808de00b2032000000141001241780078
:100cec006041610081407100b003b00001487800a0
:100cfc00218180000e80e80010007800f20f2000a7
:100d0c000281600043032000808141009341780000
:100d1c00e0c1610082c1710042032000000141006a
:100d2c0003497800c808de0052032000000141008e
:100d3c001241780060416100814071005003b000a5
:100d4c0001487800e18080000e80e80010007800f7
:100d5c00f20f200002816000c3022000808141005c
:100d6c0093417800e0c1610082c17100c202200091
:100d7c000001410003497800c808de00d2022000bf
:100d8c000001410012417800604161008140710016
:100d9c00d002b00001487800f18080000e80e8009d
:100dac0010007800f20f200002816000e3022000a6
:100dbc008081410093417800e0c1610082c17100e3
:100dcc00e20220000001410003497800c808de005f
:100ddc00f2022000000141001241780060416100e4
:100dec0081407100f002b000014878000181800060
:100dfc000e80e80010007800f20f200002816000e5
:100e0c00030320008081410093417800e0c1610020
:100e1c0082c17100020320000001410003497800e7
:100e2c00c808de00120320000001410012417800c6
:100e3c0060416100814071001003b00001487800ee
:100e4c00118180000e80e80010007800f20f200065
:100e5c0002816000230320008081410093417800cf
:100e6c00e0c1610082c17100220320000001410039
:100e7c0003497800c808de0032032000000141005d
:100e8c001241780060416100814071003003b00074
:100e9c00014878000000eb00000f78000d003700cf
:100eac001e0178001e007800c200dd00600b2500da
:100ebc00008040001000be00c211dd0002002100c5
:100ecc00028141000089be001e0078000000e8008d
:100edc00000f78000e80e80010007800c10220009e
:100eec0080804000914078008180fb00d002b000ef
:100efc00104078000080fb004800dd00008070008e
:100f0c009e007800810f5000e5ff3e000000eb00d2
:100f1c00000f78000e0037001e0178001e007800cc
:100f2c00c200dd00200c2500008040001000be0037
:100f3c0063014100c211dd00020021000281410069
:100f4c000089be001e0078000000e800000f780049
:100f5c000e80e80010007800e10220008080400044
:100f6c00914078008180fb00f002b00010407800c6
:100f7c000080fb004800dd00008070009e007800bf
:100f8c00810f5000e4ff3e00e00025000403070041
:100f9c00100020000080fa00000006000000fa009b
:100fac000200070022040700ffff37000200fa00ce
:100fbc000000eb00000f7800c0c02000f10f2000f3
:100fcc00010160000101250091417800e0c1610040
:100fdc0002c1710082487800c800de0010012500b3
:100fec001041780060416100814071000148780037
:100ffc006001250090407800e0c060000148780056
:10100c007001250090407800e0c060000148780035
:10101c002001250090407800e0c060000148780075
:10102c003001250090407800e0c060000148780055
:10103c00400125001041780080c0eb008140710018
:10104c0001487800500125009040780060c1600094
:10105c00f1c7b3008140710001487800e0342000f2
:10106c00f10f200001016000010225009141780080
:10107c00e0c1610002c1710082487800c800de0046
:10108c001002250010417800604161008140710020
:10109c00014878006002250090407800e0c06000b4
:1010ac00014878007002250090407800e0c0600094
:1010bc00014878002002250090407800e0c06000d4
:1010cc00014878003002250090407800e0c06000b4
:1010dc0001487800400225001041780080c0eb00e8
:1010ec008140710001487800500225009040780042
:1010fc0060c16000f1c7b300814071000148780005
:10110c00e0022100f10f2000010160000103250025
:10111c0091417800e0c1610002c171008248780001
:10112c00c800de001003250010417800604161000a
:10113c0081407100014878006005250090407800de
:10114c00e0c06000014878007005250090407800f0
:10115c00e0c06000014878008005250090407800d0
:10116c0060c1600081c7b300814071000148780004
:10117c00900525009040780060c16000e1c3b30089
:10118c00814071000148780060082500904078008b
:10119c00e0c060000148780070082500904078009d
:1011ac00e0c060000148780080082500904078007d
:1011bc00e0c060000148780090082500904078005d
:1011cc00e0c0600001487800a0082500904078003d
:1011dc00e0c0600001487800b0082500904078001d
:1011ec00e0c0600001487800c008250090407800fd
:1011fc00e0c0600001487800d008250090407800dd
:10120c00e0c0600001487800e008250090407800bc
:10121c00e0c0600001487800f0082500904078009c
:10122c00e0c060000148780000092500904078007b
:10123c00e0c060000148780010092500904078005b
:10124c00e0c060000148780020092500904078003b
:10125c00e0c060000148780030092500904078001b
:10126c00e0c06000014878004009250090407800fb
:10127c00e0c06000014878005009250090407800db
:10128c00e0c0600001487800e0002500fcfd07008c
:10129c00000f78001e0078000080fa0000000600a5
:1012ac000000fa00002bef00000620001058880008
:1012bc00042bef00062bef00082bef000a2bef009e
:1012cc000c2bef000e2bef00102bef00122bef006e
:1012dc00142bef00162bef00100020000059880093
:1012ec000030200010598800382bef00402bef0005
:1012fc00482bef00502bef003a2bef00422bef0066
:10130c004a2bef00522bef003c2bef00442bef004d
:10131c004c2bef00542bef003e2bef00462bef0035
:10132c004e2bef00562bef0000402000505b880046
:10133c0000402000705b880000402000905b88001b
:10134c0000402000b05b8800a02bef00a42bef0026
:10135c00a82bef00ac2bef00d02bef00d22bef0023
:10136c00d42bef00d82bef0000302000b05e8800ab
:10137c0000302000d05e8800f02bef00f22bef0045
:10138c00022cef0020a520004600070000a820003a
:10139c005c00070040a920006400070080aa200020
:1013ac006c0007001808a9003808a8001828a90024
:1013bc003828a8000b68a9002b68a80011608000d1
:1013cc0000f02000010070001060880001eba80004
:1013dc00260007000f00070040002000005c88007a
:1013ec00822bef00842bef00862bef00882bef0075
:1013fc008a2bef008c2bef008e2bef00902bef0045
:10140c00922bef0010102000c05c88000080fa00c6
:10141c00000006000000fa00000ca800000000000c
:10142c000160800000102000008060000000e000df
:10143c00fbff32000a0ba8000080fa000000060037
:10144c000000fa00002ca8000000000001608000e1
:10145c0000202000008060000000e000fbff320054
:10146c000a2ba8000080fa00000006000000fa0019
:10147c0000eca800000000000160800000002800c3
:10148c00008060000000e000fbff32000aeba800c7
:10149c000080fa00000006000000fa000080fa004c
:1014ac00000006000200fa00000f78001e00780011
:1014bc00308188000080fa00000006000000fa006d
:1014cc005140800000402000008060000000e000df
:1014dc0006003200308180000000e0000200320083
:1014ec0030818000000001000b48a9000080fa0048
:1014fc00000006000200fa00000f78000080fa00dd
:10150c00000006000200fa00000f78001e007800b0
:10151c00408188000080fa00000006000200fa00fa
:10152c00000f78000080fa00000006000200fa00ac
:10153c00000f78001e007800508188000080fa00af
:10154c00000006000200fa00000f78000080fa008c
:10155c00000006000200fa00000f78001e00780060
:10156c00608188000080fa00000006000000fa008c
:10157c0030002000001888000223ef000423ef0045
:10158c000623ef000823ef0000012000501888000c
:10159c000c23ef000e23ef001023ef001223ef00bb
:1015ac001423ef001623ef001823ef001a23ef008b
:1015bc001c23ef001e23ef002023ef002223ef005b
:1015cc002423ef002623ef002823ef002c23ef0029
:1015dc002e23ef003023ef00c0002000901988006c
:1015ec0080102000a01988003623ef003823ef006c
:1015fc003a23ef003c23ef003e23ef004023ef00a3
:10160c004223ef004423ef004623ef004823ef0072
:10161c004a23ef004c23ef004e23ef005023ef0042
:10162c0080e72300901a8800a00f2000a01a8800e1
:10163c005623ef005823ef0000322000d01a880008
:10164c0000322000e01a88000000000006020700ab
:10165c000004a2000004e000fcff3a00800828000f
:10166c00501988000080fa00000006000000fa0003
:10167c000080fa00000006000000fa0040408000e4
:10168c00680060000000e00002003200f7ff070075
:10169c000868a9000080fa00000006000000fa00ab
:1016ac000080fa00000006000000fa00a140800053
:1016bc0000202000008060000000e00002003200ea
:1016cc00f6ff07001528a9000080fa0000000600ac
:1016dc000000fa000080fa00000006000000fa008a
:1016ec00a140800000402000008060000000e0006d
:1016fc0002003200f6ff07001548a9000080fa002e
:10170c00000006000000fa000080fa00000006004d
:10171c000000fa00a14080000080200000806000e2
:10172c000000e00002003200f6ff07001568a90077
:10173c000080fa00000006000000fa000080fa00a9
:10174c00000006000000fa00a1408000000021000b
:10175c00008060000000e00002003200f6ff07008d
:10176c001588a9000080fa00000006000000fa00ad
:10177c000080fa00000006000000fa00a140800082
:10178c0000002200008060000000e0000200320037
:10179c00f6ff070015a8a9000080fa00000006005b
:1017ac000000fa000080fa00000006000000fa00b9
:1017bc00a140800000002400008060000000e000d8
:1017cc0002003200f6ff070015c8a9000080fa00dd
:1017dc00000006000000fa00007c80000080fa0087
:1017ec00000006000200fa00faff0700000f780064
:1017fc001e007800240007000004e0000200320004
:10180c00000028007d0007001e0078002c00070057
:10181c000004e00002003200000024007700070002
:10182c001e007800360007000004e00002003200c1
:10183c0000202000710007001e0078004000070007
:10184c000004e00002003200000820006b000700da
:10185c001e0078004a0007000004e000020032007d
:10186c0000042000650007001e00780054000700eb
:10187c000004e00002003200000120005f000700bd
:10188c000080fa00000006000400fa008e80e800d8
:10189c00800878000040eb00004f78000e80e800d4
:1018ac00100078000000e00002003d0010c0b30002
:1018bc00004f78001e4078000080fa0000000600ff
:1018cc000400fa008e80e800800878000040eb00ed
:1018dc00004f78000e80e800900078000000240093
:1018ec00008060000000e0000200320010c0b30075
:1018fc00004f78001e4078000080fa0000000600bf
:10190c000400fa008e80e800800878000040eb00ac
:10191c00004f78000e80e800900078000020200036
:10192c00008060000000e0000200320010c0b30034
:10193c00004f78001e4078000080fa00000006007e
:10194c000400fa008e80e800800878000040eb006c
:10195c00004f78000e80e80090007800000820000e
:10196c00008060000000e0000200320010c0b300f4
:10197c00004f78001e4078000080fa00000006003e
:10198c000400fa008e80e800800878000040eb002c
:10199c00004f78000e80e8009000780000042000d2
:1019ac00008060000000e0000200320010c0b300b4
:1019bc00004f78001e4078000080fa0000000600fe
:1019cc000400fa008e80e800800878000040eb00ec
:1019dc00004f78000e80e800100078007000600066
:1019ec000000e0000200320010c0b300004f78008d
:1019fc001e4078000080fa00000006000200fa0089
:101a0c00000f78001e80ea00017c8000010060005d
:101a1c00007c88000080fa00000006000000fa003c
:101a2c00802fef000080fa000000060000a0fe00ee
:101a3c00841f7800851f7800861f7800881f780027
:101a4c008a1f78002200f8002400f8002600f80015
:101a5c002800f8002a00f8002c00f8004400f800d8
:101a6c004200f800040c200024028800501590005d
:101a7c002a039000360598001a039000260598005a
:101a8c000a0390001605980010019000920078004f
:101a9c001011900092801000201990008208dd0037
:101aac0030149000010d78005290c3008608c300da
:101abc008708c1000500c8000080cb00d8ba970089
:101acc008708c1000500c8000080cb00d8ba970079
:101adc008708c1000500c8000080cb00d8ba970069
:101aec001301c1000500c8000080cb002014900039
:101afc00401590005290c7008608c3008708c100ab
:101b0c000500c8000080cb00d8ba97008708c10038
:101b1c000500c8000080cb00d8ba97001301c100a3
:101b2c000500c8000080cb000480cd00402390004d
:101b3c001620e600060278005023900016a0e6005e
:101b4c0006027800100c9000040c780040159000f0
:101b5c001a039000260598000a03900016059800b9
:101b6c00040d78004200f9004400f9002c00f90043
:101b7c002a00f9002800f9002600f9002400f900d9
:101b8c002200f9004f0578004f0478004f037800cd
:101b9c00cf0278004f0278000080fe0000000600a3
:101bac00801f7800401090000018eb000018eb002c
:101bbc000008eb004f007800801f78005010900058
:101bcc000018eb000018eb000018eb000008eb000d
:101bdc004f00780000000600801f7800811f7800fd
:101bec005010900001187800011878000118780046
:101bfc0001087800cf0078004f007800801f780033
:101c0c00821f7800401090000218780002187800ab
:101c1c00020878004f0178004f00780000000600a1
:101c2c000000fa000421ef00f07022004008880048
:101c3c000000280000088800f08180000000e0000f
:101c4c0002003a00e0e62000240007000028a9006a
:101c5c002028a800200d25008040eb0001487800ca
:101c6c000080fa00000006000200fa00000f780065
:101c7c009e00780041088800200d25008040eb0074
:101c8c00014878000080fa00000006000000fa000d
:101c9c00400880000080fa00000006000200fa00f4
:101cac00000f78009e00780021088800200d250088
:101cbc008040eb00014878000080fa00000006002c
:101ccc000000fa00200880000080fa0000000600e6
:101cdc000000fa000080fa00000006000200fa0082
:101cec00000f78002028a9009e007800f181880060
:101cfc002028a8000080fa00000006000000fa006e
:101d0c00200d25008040eb00014878002028a80019
:101d1c0001e1a8000080fa00000006000000fa00b3
:101d2c0001e1a9002028a9000080fa0000000600ab
:101d3c000200fa00200d2500104f78001e4078009c
:101d4c000004e00003003200200d25008040eb0071
:101d5c00014878001e4078000080fa000000060060
:101d6c000000fa00300d2500104078000080fb00c8
:101d7c000080fa00000006000000fa00300d25007b
:101d8c008040eb00014878000080fa00000006005b
:101d9c000000fa0010002300307c8800800c20002a
:101dac00407c88008c2fef0010042000507c8800b1
:101dbc0010102800707c8800d0072000807c8800e0
:101dcc0010222000907c88009a2fef00b82fef0093
:101ddc00ba2fef00be2fef00002def00a02fef0069
:101dec00a42fef00a62fef00a82fef00aa2fef00d3
:101dfc00ae2fef00b02fef00b22fef00120020003b
:101e0c0080072000a109200053f8200080497800a9
:101e1c00814978008249780012002000600420007b
:101e2c007105200043f82000804978008149780032
:101e3c008249780000000000207c80006100600076
:101e4c000000e000fcff3a0000000000217c800054
:101e5c0000022000008060000000e000fbff320068
:101e6c000080fa00000006000000fa00707c800080
:101e7c00ee800a00000000000080fb0000f0a700cc
:101e8c000000ea000000ea004f00de00004078008d
:081e9c000080fa0000000600be
:020000040000fa
:101ea400261000000800000080000000965000008a
:101eb40020000000800000003c1000000200000030
:101ec40082000000ffff0000d2500000020000006a
:101ed400800000003e1000000200000080000000ae
:101ee4002e1000000800000080000000b650000022
:101ef4001c00000082000000ffffc7006801000012
:101f0400bc8d020000569e00ffffbf0058ffff007b
:101f140066afff00ff72a700ffffcb005000000078
:101f24000e50000088000000800000000010000037
:101f34001c000000800000001c1000000a000000cb
:101f440082000000030004000003000004000300fa
:101f540000000000005000000e000000800000009f
:101f640036100000060000008000000000000000a1
:020000040000fa
:101f74000000fa00062eef00222eef003e2eef00a6
:101f84005a2eef00f001200010708800d0ff2300cb
:101f9400f07088000080eb00d0718800f0ef2d0015
:101fa400b07288000c2eef00282eef00442eef00b4
:101fb400602eef000a2eef00262eef00422eef00d7
:101fc4005e2eef00082eef00242eef00402eef00cf
:101fd4005c2eef00f00120000070880070382000b3
:101fe400e0708800f00c2000c071880000c0200060
:101ff400a07288000080fa00000006000200fa00c7
:10200400000f780021028000200f20000080600073
:102014001e007000200288000080fa000000060004
:102024000000fa00c3e8a80000000000000000005f
:102034000080fa00000006000000fa00ccff070050
:102044000900070054ff070097fc070049fd07003b
:10205400f5fe0700f2ff070000022000e7ff07007b
:102064000080fa00000006000000fa00014580002c
:1020740080ff2f00008060000000a0000045880061
:1020840061438000f0ff280080806000000025008c
:10209400010070006043880001458000f0f82f00c3
:1020a400008060000040a0000045880001428000dc
:1020b400f0f82f00008060000050a000004288006b
:1020c4000080fa00000006000200fa00000f780009
:1020d4009e007800e1818800ffff37000000fa00cd
:1020e4006009250080077800e00a250000018800c7
:0820f4000080fa000000060064
:020000040000fa
:020000040005f5
:047e0000ffffff0081
:020000040000fa
:020000040005f5
:047e2000ffffff0061
:020000040000fa
:020000040005f5
:047e300078ffff00d8
:020000040000fa
:020000040005f5
:047e38003bffff000d
:020000040000fa
:020000040005f5
:047e40007f7fff0041
:020000040000fa
:020000040005f5
:047e4800ffffff0039
:020000040000fa
:020000040005f5
:047e5000deffff0052
:020000040000fa
:020000040005f5
:047e58000000ff0027
:020000040000fa
:020000040005f5
:047e60000000ff001f
:020000040000fa
:020000040005f5
:047e68000000ff0017
:020000040000fa
:020000040005f5
:047e70000000ff000f
:020000040000fa
:020000040005f5
:047e7800ffffff0009
:020000040000fa
:020000040005f5
:047e8000fffcff0004
:020000040000fa
:020000040005f5
:047e8800ffffff00f9
:020000040000fa
:020000040005f5
:047ff800ffffff0088
:020000040000fa
:020000040100f9
:04300000ffffff00cf
:00000001FF
